:020000040800F2
:100000007006002021020008290200082B020008C7
:100010002D0200082F020008310200080000000035
:100020000000000000000000000000003302000893
:1000300035020008000000003702000839020008FD
:100040003B0200083B0200083B0200083B0200089C
:100050003B0200083B0200083B0200083B0200088C
:100060003B0200083B0200083B0200083B0200087C
:100070003B0200083B0200083B0200083B0200086C
:100080003B0200083B0200083B0200083B0200085C
:100090003B0200083B0200083B0200083B0200084C
:1000A0003B0200083B0200083B0200083B0200083C
:1000B000190800083B0200083B0200083B02000848
:1000C0003B0200083B0200083B0200083B0200081C
:1000D0003B0200083B0200083B0200083B0200080C
:1000E0003B0200083B0200083B0200083B020008FC
:1000F0003B0200083B0200083B0200083B020008EC
:100100003B0200083B0200083B0200083B020008DB
:100110003B0200083B0200083B0200083B020008CB
:100120003B0200083B0200083B0200083B020008BB
:100130003B0200083B0200083B0200083B020008AB
:100140003B0200083B0200083B0200083B0200089B
:100150003B0200083B0200083B0200083B0200088B
:100160003B0200083B0200083B0200083B0200087B
:100170003B0200083B0200083B02000800000000B0
:100180003B02000800F002F800F03AF80AA090E8FC
:10019000000C82448344AAF10107DA4501D100F042
:1001A0002FF8AFF2090EBAE80F0013F0010F18BFD5
:1001B000FB1A43F001031847CC070000EC070000CE
:1001C000103A24BF78C878C1FAD8520724BF30C883
:1001D00030C144BF04680C60704700000023002455
:1001E00000250026103A28BF78C1FBD8520728BF47
:1001F00030C148BF0B6070471FB51FBD10B510BDA3
:1002000000F031F81146FFF7F7FF00F0B2FB00F005
:100210004FF803B4FFF7F2FF03BC00F057F80000FB
:100220000948804709480047FEE7FEE7FEE7FEE78A
:10023000FEE7FEE7FEE7FEE7FEE7FEE704480549C6
:10024000054A064B70470000BD07000885010008FD
:100250007000002070060020700200207002002054
:10026000704770477047754600F02CF8AE460500A1
:100270006946534620F00700854618B020B5FFF7C1
:10028000DDFFBDE820404FF000064FF000074FF0C3
:1002900000084FF0000B21F00701AC46ACE8C009A4
:1002A000ACE8C009ACE8C009ACE8C0098D467047AD
:1002B00010B50446AFF300802046BDE81040FFF7BC
:1002C000A8BF000000487047100000200149182016
:1002D000ABBEFEE7260002007047000030B10749C0
:1002E000096841F48071054A116005E00349096815
:1002F00021F48071014A116070470000003C024007
:10030000014A107070470000003C0240F0B50A46F8
:1003100000210023002400BF3DE0012505FA01F380
:10032000156805EA03049C4234D105684F00032692
:10033000BE40B543056015794E00B54006683543AB
:1003400005601579012D02D01579022D16D1856829
:100350004F000326BE40B543856055794E00B54039
:10036000866835438560456801268E40B543456003
:10037000456896798E40B6B235434560C5684F00F2
:100380000326BE40B543C560D5794E00B540C6686A
:100390003543C560491C1029BFD3F0BD1CB50121F0
:1003A000102000F01FF8FF20009001208DF80400BD
:1003B00000208DF806008DF8070003208DF8050059
:1003C00069460248FFF7A2FF1CBD00000010024072
:1003D00003494969012282405140014A51617047F5
:1003E0000010024029B1064A12680243044B1A6009
:1003F00004E0034A12688243014B1A607047000010
:100400003038024029B1064A12680243044B1A6090
:1004100004E0034A12688243014B1A6070470000EF
:100420004038024010B586B000F036F8012000F0E8
:10043000FFF800F041F904464CB30120FFF74EFFEE
:100440000220FFF75DFF002000F0E6F84FF4A05017
:1004500000F0F6F84FF4A05000F0FEF8042002235C
:10046000F02219210090000500F008F9012000F0A9
:10047000FFF800BF392000F0A7F80028FAD00220CA
:1004800000F00EF900BF00F0BFF80828FBD102A869
:1004900000F026F806B010BD0E48006840F00100DC
:1004A0000C49086000200B490831086009480068C1
:1004B00009490840074908600848091D0860081FE5
:1004C000006820F48020091F0860002001490C31D9
:1004D0000860704700380240FFFFF6FE103000242D
:1004E000F0B5002100220024022500260223324F0D
:1004F0003F6807F00C0121B1042905D0082937D144
:1005000005E02E4F076036E02D4F076033E02A4F9D
:100510003F1F3F68C7F38056274F3F1F3F6807F0D4
:100520003F036EB1264FB7FBF3F7DFF88CC0ACF199
:10053000040CDCF800C0CCF3881C07FB0CF40CE0C6
:100540001E4FB7FBF3F7DFF870C0ACF1040CDCF81A
:1005500000C0CCF3881C07FB0CF4174F3F1F3F680B
:10056000C7F301477F1C7D00B4FBF5F7076002E08D
:10057000124F076000BF00BF0F4F3F6807F0F00148
:100580000909104F7A5C0768D74047600A4F3F68F7
:1005900007F4E051890A0B4F7A5C4768D7408760BF
:1005A000054F3F6807F46041490B064F7A5C476886
:1005B000D740C760F0BD0000083802400024F400B6
:1005C00040787D010000002010B501460022002384
:1005D00000204A11012A02D10A4C236808E0022AAD
:1005E00003D1084C7034236802E0064C743423684D
:1005F00001F01F02012494401C400CB1012000E0D6
:10060000002010BD003802400248006800F00C00D5
:10061000704700000838024001460020034A106875
:1006200020F0F000084310607047000008380240D6
:100630000021024A117011460870704702380240CA
:1006400001460020034A106820F4E050084310607F
:10065000704700000838024001460020034A106835
:1006600020F4604040EAC100106070470838024042
:1006700001490866704700000000474270B5049CBD
:1006800041EA82150126C6EB530645EA06450543B5
:1006900045EA0465014E356070BD00000438024033
:1006A00001460020034A106820F003000843106050
:1006B000704700000838024038B500200090002440
:1006C000002500BF3120FFF77FFF05460098401C42
:1006D00000900098B0F5A06F01D0002DF2D031202D
:1006E000FFF772FF08B1012400E00024204638BD66
:1006F0000CB50020019000902D48006840F4803037
:100700002B49086000BF2A48006800F400300090C0
:100710000198401C0190009818B90198B0F5A06F9D
:10072000F1D12348006800F4003010B1012000909E
:1007300001E0002000900098012838D11C480830C2
:1007400000681B49083108600846006840F4004012
:1007500008600846006840F4A05008601548091F6A
:100760000860081F006840F08070091F086000BF23
:100770000F48006800F000700028F9D040F20370C4
:100780000D4908600A480830006820F00300084955
:10079000083108600846006840F00200086000BFA9
:1007A00003480830006800F00C000828F8D10CBDA0
:1007B00000380240193C4005003C024010B5124888
:1007C000006840F001001049086000200E4908311F
:1007D00008600D4800680D4908400B4908600C4846
:1007E000091D0860081F006820F48020091F0860A8
:1007F000002005490C310860FFF77AFF4FF00060D8
:100800000449086010BD000000380240FFFFF6FEFA
:100810001030002408ED00E010B50121880700F039
:1008200042F830B10020FFF7D3FD0121880700F026
:100830002BF810BD3EB5044604EB44004004050C03
:1008400001210846FFF7DEFD684600F089F8ADF8A3
:10085000005042F2107001906946800600F03EF8A8
:1008600001221146900700F02FF80121880700F0BF
:100870000EF81C20012181404209920002F1E02281
:10088000C2F8001100BF3EBDCA430282704721B1C9
:10089000028842F00102028004E002884FF6FE73F3
:1008A0001A400280704730B5024600200023002421
:1008B000158A05EA0103958905EA010413B10CB113
:1008C000012000E0002030BD1AB183890B438381F1
:1008D00002E083898B4383817047000000220288F5
:1008E000184B98420ED0184B98420BD0B0F1804F65
:1008F00008D0164B984205D0154B984202D0154BA4
:10090000984204D14FF68F731A404B881A43124B0A
:10091000984207D0114B984204D04FF6FF431A403B
:100920000B891A4302804B68C3620B880385054B11
:10093000984202D0044B984201D18B7A038601235E
:100940008382704700000140000401400004004021
:1009500000080040000C004000100040001400405F
:100960004FF0FF314160002101800181418081729F
:100970007047FFF757FD1420FFF75CFFFFF70EFDF0
:1009800000BFFEE7A40900080000002010000000DE
:10099000C0010008B4090008100000206006000033
:1009A000DC0100080000000001020304010203044E
:0409B0000607080925
:040000050800018569
:00000001FF
